{
  "_format": "hh-sol-artifact-1",
  "contractName": "February",
  "sourceName": "contracts/February.sol",
  "abi": [
    {
      "inputs": [],
      "stateMutability": "nonpayable",
      "type": "constructor"
    },
    {
      "inputs": [
        {
          "internalType": "address",
          "name": "sender",
          "type": "address"
        },
        {
          "internalType": "uint256",
          "name": "tokenId",
          "type": "uint256"
        },
        {
          "internalType": "address",
          "name": "owner",
          "type": "address"
        }
      ],
      "name": "ERC721IncorrectOwner",
      "type": "error"
    },
    {
      "inputs": [
        {
          "internalType": "address",
          "name": "operator",
          "type": "address"
        },
        {
          "internalType": "uint256",
          "name": "tokenId",
          "type": "uint256"
        }
      ],
      "name": "ERC721InsufficientApproval",
      "type": "error"
    },
    {
      "inputs": [
        {
          "internalType": "address",
          "name": "approver",
          "type": "address"
        }
      ],
      "name": "ERC721InvalidApprover",
      "type": "error"
    },
    {
      "inputs": [
        {
          "internalType": "address",
          "name": "operator",
          "type": "address"
        }
      ],
      "name": "ERC721InvalidOperator",
      "type": "error"
    },
    {
      "inputs": [
        {
          "internalType": "address",
          "name": "owner",
          "type": "address"
        }
      ],
      "name": "ERC721InvalidOwner",
      "type": "error"
    },
    {
      "inputs": [
        {
          "internalType": "address",
          "name": "receiver",
          "type": "address"
        }
      ],
      "name": "ERC721InvalidReceiver",
      "type": "error"
    },
    {
      "inputs": [
        {
          "internalType": "address",
          "name": "sender",
          "type": "address"
        }
      ],
      "name": "ERC721InvalidSender",
      "type": "error"
    },
    {
      "inputs": [
        {
          "internalType": "uint256",
          "name": "tokenId",
          "type": "uint256"
        }
      ],
      "name": "ERC721NonexistentToken",
      "type": "error"
    },
    {
      "anonymous": false,
      "inputs": [
        {
          "indexed": true,
          "internalType": "address",
          "name": "owner",
          "type": "address"
        },
        {
          "indexed": true,
          "internalType": "address",
          "name": "approved",
          "type": "address"
        },
        {
          "indexed": true,
          "internalType": "uint256",
          "name": "tokenId",
          "type": "uint256"
        }
      ],
      "name": "Approval",
      "type": "event"
    },
    {
      "anonymous": false,
      "inputs": [
        {
          "indexed": true,
          "internalType": "address",
          "name": "owner",
          "type": "address"
        },
        {
          "indexed": true,
          "internalType": "address",
          "name": "operator",
          "type": "address"
        },
        {
          "indexed": false,
          "internalType": "bool",
          "name": "approved",
          "type": "bool"
        }
      ],
      "name": "ApprovalForAll",
      "type": "event"
    },
    {
      "anonymous": false,
      "inputs": [
        {
          "indexed": true,
          "internalType": "address",
          "name": "from",
          "type": "address"
        },
        {
          "indexed": true,
          "internalType": "address",
          "name": "to",
          "type": "address"
        },
        {
          "indexed": true,
          "internalType": "uint256",
          "name": "tokenId",
          "type": "uint256"
        }
      ],
      "name": "Transfer",
      "type": "event"
    },
    {
      "inputs": [
        {
          "internalType": "address",
          "name": "to",
          "type": "address"
        },
        {
          "internalType": "uint256",
          "name": "tokenId",
          "type": "uint256"
        }
      ],
      "name": "approve",
      "outputs": [],
      "stateMutability": "nonpayable",
      "type": "function"
    },
    {
      "inputs": [
        {
          "internalType": "address",
          "name": "owner",
          "type": "address"
        }
      ],
      "name": "balanceOf",
      "outputs": [
        {
          "internalType": "uint256",
          "name": "",
          "type": "uint256"
        }
      ],
      "stateMutability": "view",
      "type": "function"
    },
    {
      "inputs": [
        {
          "internalType": "uint256",
          "name": "tokenId",
          "type": "uint256"
        }
      ],
      "name": "getApproved",
      "outputs": [
        {
          "internalType": "address",
          "name": "",
          "type": "address"
        }
      ],
      "stateMutability": "view",
      "type": "function"
    },
    {
      "inputs": [
        {
          "internalType": "address",
          "name": "owner",
          "type": "address"
        },
        {
          "internalType": "address",
          "name": "operator",
          "type": "address"
        }
      ],
      "name": "isApprovedForAll",
      "outputs": [
        {
          "internalType": "bool",
          "name": "",
          "type": "bool"
        }
      ],
      "stateMutability": "view",
      "type": "function"
    },
    {
      "inputs": [],
      "name": "name",
      "outputs": [
        {
          "internalType": "string",
          "name": "",
          "type": "string"
        }
      ],
      "stateMutability": "view",
      "type": "function"
    },
    {
      "inputs": [
        {
          "internalType": "uint256",
          "name": "tokenId",
          "type": "uint256"
        }
      ],
      "name": "ownerOf",
      "outputs": [
        {
          "internalType": "address",
          "name": "",
          "type": "address"
        }
      ],
      "stateMutability": "view",
      "type": "function"
    },
    {
      "inputs": [
        {
          "internalType": "address",
          "name": "to",
          "type": "address"
        },
        {
          "internalType": "uint256",
          "name": "tokenId",
          "type": "uint256"
        }
      ],
      "name": "safeMint",
      "outputs": [],
      "stateMutability": "nonpayable",
      "type": "function"
    },
    {
      "inputs": [
        {
          "internalType": "address",
          "name": "from",
          "type": "address"
        },
        {
          "internalType": "address",
          "name": "to",
          "type": "address"
        },
        {
          "internalType": "uint256",
          "name": "tokenId",
          "type": "uint256"
        }
      ],
      "name": "safeTransferFrom",
      "outputs": [],
      "stateMutability": "nonpayable",
      "type": "function"
    },
    {
      "inputs": [
        {
          "internalType": "address",
          "name": "from",
          "type": "address"
        },
        {
          "internalType": "address",
          "name": "to",
          "type": "address"
        },
        {
          "internalType": "uint256",
          "name": "tokenId",
          "type": "uint256"
        },
        {
          "internalType": "bytes",
          "name": "data",
          "type": "bytes"
        }
      ],
      "name": "safeTransferFrom",
      "outputs": [],
      "stateMutability": "nonpayable",
      "type": "function"
    },
    {
      "inputs": [
        {
          "internalType": "address",
          "name": "operator",
          "type": "address"
        },
        {
          "internalType": "bool",
          "name": "approved",
          "type": "bool"
        }
      ],
      "name": "setApprovalForAll",
      "outputs": [],
      "stateMutability": "nonpayable",
      "type": "function"
    },
    {
      "inputs": [
        {
          "internalType": "bytes4",
          "name": "interfaceId",
          "type": "bytes4"
        }
      ],
      "name": "supportsInterface",
      "outputs": [
        {
          "internalType": "bool",
          "name": "",
          "type": "bool"
        }
      ],
      "stateMutability": "view",
      "type": "function"
    },
    {
      "inputs": [],
      "name": "symbol",
      "outputs": [
        {
          "internalType": "string",
          "name": "",
          "type": "string"
        }
      ],
      "stateMutability": "view",
      "type": "function"
    },
    {
      "inputs": [
        {
          "internalType": "uint256",
          "name": "tokenId",
          "type": "uint256"
        }
      ],
      "name": "tokenURI",
      "outputs": [
        {
          "internalType": "string",
          "name": "",
          "type": "string"
        }
      ],
      "stateMutability": "view",
      "type": "function"
    },
    {
      "inputs": [
        {
          "internalType": "address",
          "name": "from",
          "type": "address"
        },
        {
          "internalType": "address",
          "name": "to",
          "type": "address"
        },
        {
          "internalType": "uint256",
          "name": "tokenId",
          "type": "uint256"
        }
      ],
      "name": "transferFrom",
      "outputs": [],
      "stateMutability": "nonpayable",
      "type": "function"
    }
  ],
  "bytecode": "0x60806040523480156200001157600080fd5b506040518060400160405280600881526020017f46656272756172790000000000000000000000000000000000000000000000008152506040518060400160405280600381526020017f464542000000000000000000000000000000000000000000000000000000000081525081600090816200008f919062000324565b508060019081620000a1919062000324565b5050506200040b565b600081519050919050565b7f4e487b7100000000000000000000000000000000000000000000000000000000600052604160045260246000fd5b7f4e487b7100000000000000000000000000000000000000000000000000000000600052602260045260246000fd5b600060028204905060018216806200012c57607f821691505b602082108103620001425762000141620000e4565b5b50919050565b60008190508160005260206000209050919050565b60006020601f8301049050919050565b600082821b905092915050565b600060088302620001ac7fffffffffffffffffffffffffffffffffffffffffffffffffffffffffffffffff826200016d565b620001b886836200016d565b95508019841693508086168417925050509392505050565b6000819050919050565b6000819050919050565b600062000205620001ff620001f984620001d0565b620001da565b620001d0565b9050919050565b6000819050919050565b6200022183620001e4565b6200023962000230826200020c565b8484546200017a565b825550505050565b600090565b6200025062000241565b6200025d81848462000216565b505050565b5b8181101562000285576200027960008262000246565b60018101905062000263565b5050565b601f821115620002d4576200029e8162000148565b620002a9846200015d565b81016020851015620002b9578190505b620002d1620002c8856200015d565b83018262000262565b50505b505050565b600082821c905092915050565b6000620002f960001984600802620002d9565b1980831691505092915050565b6000620003148383620002e6565b9150826002028217905092915050565b6200032f82620000aa565b67ffffffffffffffff8111156200034b576200034a620000b5565b5b62000357825462000113565b6200036482828562000289565b600060209050601f8311600181146200039c576000841562000387578287015190505b62000393858262000306565b86555062000403565b601f198416620003ac8662000148565b60005b82811015620003d657848901518255600182019150602085019450602081019050620003af565b86831015620003f65784890151620003f2601f891682620002e6565b8355505b6001600288020188555050505b505050505050565b611dfe806200041b6000396000f3fe608060405234801561001057600080fd5b50600436106100ea5760003560e01c806370a082311161008c578063a22cb46511610066578063a22cb4651461025b578063b88d4fde14610277578063c87b56dd14610293578063e985e9c5146102c3576100ea565b806370a08231146101f157806395d89b4114610221578063a14481941461023f576100ea565b8063095ea7b3116100c8578063095ea7b31461016d57806323b872dd1461018957806342842e0e146101a55780636352211e146101c1576100ea565b806301ffc9a7146100ef57806306fdde031461011f578063081812fc1461013d575b600080fd5b61010960048036038101906101049190611648565b6102f3565b6040516101169190611690565b60405180910390f35b6101276103d5565b604051610134919061173b565b60405180910390f35b61015760048036038101906101529190611793565b610467565b6040516101649190611801565b60405180910390f35b61018760048036038101906101829190611848565b610483565b005b6101a3600480360381019061019e9190611888565b610499565b005b6101bf60048036038101906101ba9190611888565b61059b565b005b6101db60048036038101906101d69190611793565b6105bb565b6040516101e89190611801565b60405180910390f35b61020b600480360381019061020691906118db565b6105cd565b6040516102189190611917565b60405180910390f35b610229610687565b604051610236919061173b565b60405180910390f35b61025960048036038101906102549190611848565b610719565b005b6102756004803603810190610270919061195e565b610727565b005b610291600480360381019061028c9190611ad3565b61073d565b005b6102ad60048036038101906102a89190611793565b610762565b6040516102ba919061173b565b60405180910390f35b6102dd60048036038101906102d89190611b56565b6107cb565b6040516102ea9190611690565b60405180910390f35b60007f80ac58cd000000000000000000000000000000000000000000000000000000007bffffffffffffffffffffffffffffffffffffffffffffffffffffffff1916827bffffffffffffffffffffffffffffffffffffffffffffffffffffffff191614806103be57507f5b5e139f000000000000000000000000000000000000000000000000000000007bffffffffffffffffffffffffffffffffffffffffffffffffffffffff1916827bffffffffffffffffffffffffffffffffffffffffffffffffffffffff1916145b806103ce57506103cd8261085f565b5b9050919050565b6060600080546103e490611bc5565b80601f016020809104026020016040519081016040528092919081815260200182805461041090611bc5565b801561045d5780601f106104325761010080835404028352916020019161045d565b820191906000526020600020905b81548152906001019060200180831161044057829003601f168201915b5050505050905090565b6000610472826108c9565b5061047c82610951565b9050919050565b610495828261049061098e565b610996565b5050565b600073ffffffffffffffffffffffffffffffffffffffff168273ffffffffffffffffffffffffffffffffffffffff160361050b5760006040517f64a0ae920000000000000000000000000000000000000000000000000000000081526004016105029190611801565b60405180910390fd5b600061051f838361051a61098e565b6109a8565b90508373ffffffffffffffffffffffffffffffffffffffff168173ffffffffffffffffffffffffffffffffffffffff1614610595578382826040517f64283d7b00000000000000000000000000000000000000000000000000000000815260040161058c93929190611bf6565b60405180910390fd5b50505050565b6105b68383836040518060200160405280600081525061073d565b505050565b60006105c6826108c9565b9050919050565b60008073ffffffffffffffffffffffffffffffffffffffff168273ffffffffffffffffffffffffffffffffffffffff16036106405760006040517f89c62b640000000000000000000000000000000000000000000000000000000081526004016106379190611801565b60405180910390fd5b600360008373ffffffffffffffffffffffffffffffffffffffff1673ffffffffffffffffffffffffffffffffffffffff168152602001908152602001600020549050919050565b60606001805461069690611bc5565b80601f01602080910402602001604051908101604052809291908181526020018280546106c290611bc5565b801561070f5780601f106106e45761010080835404028352916020019161070f565b820191906000526020600020905b8154815290600101906020018083116106f257829003601f168201915b5050505050905090565b6107238282610bc2565b5050565b61073961073261098e565b8383610be0565b5050565b610748848484610499565b61075c61075361098e565b85858585610d4f565b50505050565b606061076d826108c9565b506000610778610f00565b9050600081511161079857604051806020016040528060008152506107c3565b806107a284610f17565b6040516020016107b3929190611c69565b6040516020818303038152906040525b915050919050565b6000600560008473ffffffffffffffffffffffffffffffffffffffff1673ffffffffffffffffffffffffffffffffffffffff16815260200190815260200160002060008373ffffffffffffffffffffffffffffffffffffffff1673ffffffffffffffffffffffffffffffffffffffff16815260200190815260200160002060009054906101000a900460ff16905092915050565b60007f01ffc9a7000000000000000000000000000000000000000000000000000000007bffffffffffffffffffffffffffffffffffffffffffffffffffffffff1916827bffffffffffffffffffffffffffffffffffffffffffffffffffffffff1916149050919050565b6000806108d583610fe5565b9050600073ffffffffffffffffffffffffffffffffffffffff168173ffffffffffffffffffffffffffffffffffffffff160361094857826040517f7e27328900000000000000000000000000000000000000000000000000000000815260040161093f9190611917565b60405180910390fd5b80915050919050565b60006004600083815260200190815260200160002060009054906101000a900473ffffffffffffffffffffffffffffffffffffffff169050919050565b600033905090565b6109a38383836001611022565b505050565b6000806109b484610fe5565b9050600073ffffffffffffffffffffffffffffffffffffffff168373ffffffffffffffffffffffffffffffffffffffff16146109f6576109f58184866111e7565b5b600073ffffffffffffffffffffffffffffffffffffffff168173ffffffffffffffffffffffffffffffffffffffff1614610a8757610a38600085600080611022565b6001600360008373ffffffffffffffffffffffffffffffffffffffff1673ffffffffffffffffffffffffffffffffffffffff168152602001908152602001600020600082825403925050819055505b600073ffffffffffffffffffffffffffffffffffffffff168573ffffffffffffffffffffffffffffffffffffffff1614610b0a576001600360008773ffffffffffffffffffffffffffffffffffffffff1673ffffffffffffffffffffffffffffffffffffffff168152602001908152602001600020600082825401925050819055505b846002600086815260200190815260200160002060006101000a81548173ffffffffffffffffffffffffffffffffffffffff021916908373ffffffffffffffffffffffffffffffffffffffff160217905550838573ffffffffffffffffffffffffffffffffffffffff168273ffffffffffffffffffffffffffffffffffffffff167fddf252ad1be2c89b69c2b068fc378daa952ba7f163c4a11628f55a4df523b3ef60405160405180910390a4809150509392505050565b610bdc8282604051806020016040528060008152506112ab565b5050565b600073ffffffffffffffffffffffffffffffffffffffff168273ffffffffffffffffffffffffffffffffffffffff1603610c5157816040517f5b08ba18000000000000000000000000000000000000000000000000000000008152600401610c489190611801565b60405180910390fd5b80600560008573ffffffffffffffffffffffffffffffffffffffff1673ffffffffffffffffffffffffffffffffffffffff16815260200190815260200160002060008473ffffffffffffffffffffffffffffffffffffffff1673ffffffffffffffffffffffffffffffffffffffff16815260200190815260200160002060006101000a81548160ff0219169083151502179055508173ffffffffffffffffffffffffffffffffffffffff168373ffffffffffffffffffffffffffffffffffffffff167f17307eab39ab6107e8899845ad3d59bd9653f200f220920489ca2b5937696c3183604051610d429190611690565b60405180910390a3505050565b60008373ffffffffffffffffffffffffffffffffffffffff163b1115610ef9578273ffffffffffffffffffffffffffffffffffffffff1663150b7a02868685856040518563ffffffff1660e01b8152600401610dae9493929190611ce2565b6020604051808303816000875af1925050508015610dea57506040513d601f19601f82011682018060405250810190610de79190611d43565b60015b610e6e573d8060008114610e1a576040519150601f19603f3d011682016040523d82523d6000602084013e610e1f565b606091505b506000815103610e6657836040517f64a0ae92000000000000000000000000000000000000000000000000000000008152600401610e5d9190611801565b60405180910390fd5b805181602001fd5b63150b7a0260e01b7bffffffffffffffffffffffffffffffffffffffffffffffffffffffff1916817bffffffffffffffffffffffffffffffffffffffffffffffffffffffff191614610ef757836040517f64a0ae92000000000000000000000000000000000000000000000000000000008152600401610eee9190611801565b60405180910390fd5b505b5050505050565b606060405180602001604052806000815250905090565b606060006001610f26846112cf565b01905060008167ffffffffffffffff811115610f4557610f446119a8565b5b6040519080825280601f01601f191660200182016040528015610f775781602001600182028036833780820191505090505b509050600082602001820190505b600115610fda578080600190039150507f3031323334353637383961626364656600000000000000000000000000000000600a86061a8153600a8581610fce57610fcd611d70565b5b04945060008503610f85575b819350505050919050565b60006002600083815260200190815260200160002060009054906101000a900473ffffffffffffffffffffffffffffffffffffffff169050919050565b808061105b5750600073ffffffffffffffffffffffffffffffffffffffff168273ffffffffffffffffffffffffffffffffffffffff1614155b1561118f57600061106b846108c9565b9050600073ffffffffffffffffffffffffffffffffffffffff168373ffffffffffffffffffffffffffffffffffffffff16141580156110d657508273ffffffffffffffffffffffffffffffffffffffff168173ffffffffffffffffffffffffffffffffffffffff1614155b80156110e957506110e781846107cb565b155b1561112b57826040517fa9fbf51f0000000000000000000000000000000000000000000000000000000081526004016111229190611801565b60405180910390fd5b811561118d57838573ffffffffffffffffffffffffffffffffffffffff168273ffffffffffffffffffffffffffffffffffffffff167f8c5be1e5ebec7d5bd14f71427d1e84f3dd0314c0f7b2291e5b200ac8c7c3b92560405160405180910390a45b505b836004600085815260200190815260200160002060006101000a81548173ffffffffffffffffffffffffffffffffffffffff021916908373ffffffffffffffffffffffffffffffffffffffff16021790555050505050565b6111f2838383611422565b6112a657600073ffffffffffffffffffffffffffffffffffffffff168373ffffffffffffffffffffffffffffffffffffffff160361126757806040517f7e27328900000000000000000000000000000000000000000000000000000000815260040161125e9190611917565b60405180910390fd5b81816040517f177e802f00000000000000000000000000000000000000000000000000000000815260040161129d929190611d9f565b60405180910390fd5b505050565b6112b583836114e3565b6112ca6112c061098e565b6000858585610d4f565b505050565b600080600090507a184f03e93ff9f4daa797ed6e38ed64bf6a1f010000000000000000831061132d577a184f03e93ff9f4daa797ed6e38ed64bf6a1f010000000000000000838161132357611322611d70565b5b0492506040810190505b6d04ee2d6d415b85acef8100000000831061136a576d04ee2d6d415b85acef810000000083816113605761135f611d70565b5b0492506020810190505b662386f26fc10000831061139957662386f26fc10000838161138f5761138e611d70565b5b0492506010810190505b6305f5e10083106113c2576305f5e10083816113b8576113b7611d70565b5b0492506008810190505b61271083106113e75761271083816113dd576113dc611d70565b5b0492506004810190505b6064831061140a5760648381611400576113ff611d70565b5b0492506002810190505b600a8310611419576001810190505b80915050919050565b60008073ffffffffffffffffffffffffffffffffffffffff168373ffffffffffffffffffffffffffffffffffffffff16141580156114da57508273ffffffffffffffffffffffffffffffffffffffff168473ffffffffffffffffffffffffffffffffffffffff16148061149b575061149a84846107cb565b5b806114d957508273ffffffffffffffffffffffffffffffffffffffff166114c183610951565b73ffffffffffffffffffffffffffffffffffffffff16145b5b90509392505050565b600073ffffffffffffffffffffffffffffffffffffffff168273ffffffffffffffffffffffffffffffffffffffff16036115555760006040517f64a0ae9200000000000000000000000000000000000000000000000000000000815260040161154c9190611801565b60405180910390fd5b6000611563838360006109a8565b9050600073ffffffffffffffffffffffffffffffffffffffff168173ffffffffffffffffffffffffffffffffffffffff16146115d75760006040517f73c6ac6e0000000000000000000000000000000000000000000000000000000081526004016115ce9190611801565b60405180910390fd5b505050565b6000604051905090565b600080fd5b600080fd5b60007fffffffff0000000000000000000000000000000000000000000000000000000082169050919050565b611625816115f0565b811461163057600080fd5b50565b6000813590506116428161161c565b92915050565b60006020828403121561165e5761165d6115e6565b5b600061166c84828501611633565b91505092915050565b60008115159050919050565b61168a81611675565b82525050565b60006020820190506116a56000830184611681565b92915050565b600081519050919050565b600082825260208201905092915050565b60005b838110156116e55780820151818401526020810190506116ca565b60008484015250505050565b6000601f19601f8301169050919050565b600061170d826116ab565b61171781856116b6565b93506117278185602086016116c7565b611730816116f1565b840191505092915050565b600060208201905081810360008301526117558184611702565b905092915050565b6000819050919050565b6117708161175d565b811461177b57600080fd5b50565b60008135905061178d81611767565b92915050565b6000602082840312156117a9576117a86115e6565b5b60006117b78482850161177e565b91505092915050565b600073ffffffffffffffffffffffffffffffffffffffff82169050919050565b60006117eb826117c0565b9050919050565b6117fb816117e0565b82525050565b600060208201905061181660008301846117f2565b92915050565b611825816117e0565b811461183057600080fd5b50565b6000813590506118428161181c565b92915050565b6000806040838503121561185f5761185e6115e6565b5b600061186d85828601611833565b925050602061187e8582860161177e565b9150509250929050565b6000806000606084860312156118a1576118a06115e6565b5b60006118af86828701611833565b93505060206118c086828701611833565b92505060406118d18682870161177e565b9150509250925092565b6000602082840312156118f1576118f06115e6565b5b60006118ff84828501611833565b91505092915050565b6119118161175d565b82525050565b600060208201905061192c6000830184611908565b92915050565b61193b81611675565b811461194657600080fd5b50565b60008135905061195881611932565b92915050565b60008060408385031215611975576119746115e6565b5b600061198385828601611833565b925050602061199485828601611949565b9150509250929050565b600080fd5b600080fd5b7f4e487b7100000000000000000000000000000000000000000000000000000000600052604160045260246000fd5b6119e0826116f1565b810181811067ffffffffffffffff821117156119ff576119fe6119a8565b5b80604052505050565b6000611a126115dc565b9050611a1e82826119d7565b919050565b600067ffffffffffffffff821115611a3e57611a3d6119a8565b5b611a47826116f1565b9050602081019050919050565b82818337600083830152505050565b6000611a76611a7184611a23565b611a08565b905082815260208101848484011115611a9257611a916119a3565b5b611a9d848285611a54565b509392505050565b600082601f830112611aba57611ab961199e565b5b8135611aca848260208601611a63565b91505092915050565b60008060008060808587031215611aed57611aec6115e6565b5b6000611afb87828801611833565b9450506020611b0c87828801611833565b9350506040611b1d8782880161177e565b925050606085013567ffffffffffffffff811115611b3e57611b3d6115eb565b5b611b4a87828801611aa5565b91505092959194509250565b60008060408385031215611b6d57611b6c6115e6565b5b6000611b7b85828601611833565b9250506020611b8c85828601611833565b9150509250929050565b7f4e487b7100000000000000000000000000000000000000000000000000000000600052602260045260246000fd5b60006002820490506001821680611bdd57607f821691505b602082108103611bf057611bef611b96565b5b50919050565b6000606082019050611c0b60008301866117f2565b611c186020830185611908565b611c2560408301846117f2565b949350505050565b600081905092915050565b6000611c43826116ab565b611c4d8185611c2d565b9350611c5d8185602086016116c7565b80840191505092915050565b6000611c758285611c38565b9150611c818284611c38565b91508190509392505050565b600081519050919050565b600082825260208201905092915050565b6000611cb482611c8d565b611cbe8185611c98565b9350611cce8185602086016116c7565b611cd7816116f1565b840191505092915050565b6000608082019050611cf760008301876117f2565b611d0460208301866117f2565b611d116040830185611908565b8181036060830152611d238184611ca9565b905095945050505050565b600081519050611d3d8161161c565b92915050565b600060208284031215611d5957611d586115e6565b5b6000611d6784828501611d2e565b91505092915050565b7f4e487b7100000000000000000000000000000000000000000000000000000000600052601260045260246000fd5b6000604082019050611db460008301856117f2565b611dc16020830184611908565b939250505056fea26469706673582212202f1e98235945a58d84469ea82015f72192e4e021dd296b0dfdd71633f955555964736f6c63430008180033",
  "linkReferences": {},
  "deployedLinkReferences": {}
}